:100000000C9459230C948A230C948A230C948A23ED
:100010000C948A230C948A230C948A230C948A23AC
:100020000C948A230C948A230C948A230C948A239C
:100030000C948A230C948A230C948A230C948A238C
:100040000C948A230C9497A40C948A230C948A23EE
:100050000C948A230C948A230C9426CE0D94182099
:100060000C948A230C94D74C0C948A230C948A23E6
:100070000C948A230C948A230C948A230C948A234C
:100080000C9499740C948A230C948A230C948A23DC
:100090000C948A230C948A230C948A230C948A232C
:1000A0000C948A230C948A230C94FEAC0C948A231F
:1000B0000C948A230C948A230C948A230C94D0AC3D
:1000C0000C948A230C948A230C948A230C948A23FC
:1000D0000C948A230C948A230C948A230C948A23EC
:1000E0000C948A23CE982699599A209C949CA99C7A
:1000F000AE9CCBCED0CEF9CEFECEDFCEEACEB5CE04
:100100002601CC00F0002E01CA0012010601FE00FB
:10011000F200D000DC00F80002011C0112013001E5
:100120004001E000F600EE00CE002201DA00E2001D
:1001300044013401000118013A011E01D8001A01DE
:10014000E2003C012801E600084AD73B3BCE016EA5
:1001500084BCBFFDC12F3D6C74319ABD56833DDA1E
:100160003D00C77F11BED9E4BB4C3E916BAAAABE2D
:10017000000000803F05A84CCDB2D44EB93836A956
:10018000020C50B9918688083CA6AAAA2ABE000093
:1001900000803F000D94911E0D94981E0D943E1FFB
:1001A0000D94AA1E0D94781E0D9461380D94F72DB0
:1001B0000D94991F0D94521F0D94AE1E0D9411268F
:1001C0000D94CA1E0D94CB1F0D946C240D94C11F69
:1001D0000D94BC220D944C2B0D94F0050D94391FF9
:1001E0000D94871E0D94A61E0D942F220D94341F7E
:1001F0000D94B41E0D94002E0D94F2050D94A01EC6
:100200000D946C1F0D94B81E0D94F4050D949C1E56
:100210000D9457260D94DF050D94062F0D94753619
:100220000D94A62C0D94CF1E0D94FB290D943B0B21
:100230000D94761F0D94A31F0D94BC1E0D948A1F60
:100240000D942B220D94481F0D9450280D94951E4B
:100250000D94B71F0D9442220D949D2C0D948B1E6E
:100260000D94C21E0D94012E0D94641F0D94181E42
:100270000D94A72C0D94801F0D94AD1F0D94A92AE9
:100280000D94C61E0D943E0B0D945C1F0D94052F0E
:10029000434F4D4D554E49434154494F4E004452F2
:1002A0005952554E004552524F525300494E464FF7
:1002B000004543484F0047322F4733206261642096
:1002C000706172616D65746572730A00536C656567
:1002D000702E2E2E00205A3A200020593A2000423B
:1002E000656420583A2000542D52455820322B2066
:1002F00072656164792E00526573756D696E672051
:100300007072696E7400436C69636B20746F207245
:100310006573756D652E2E2E004E6F206D6F7665A0
:100320002E00456E642066696C65206C6973740AE2
:1003300000426567696E2066696C65206C6973743C
:100340000A005344207072696E74696E6720627986
:10035000746520004E6F74205344207072696E746F
:10036000696E670A0046696C652064656C65746532
:10037000643A0044656C6574696F6E206661696CEF
:1003800065642C2046696C653A20006F70656E20AC
:100390006661696C65642C2046696C653A200025AD
:1003A00069730025696D202569730025696820251A
:1003B000696D2025697300256964202569682025F9
:1003C000696D2025697300256979202569642025D8
:1003D00069682025696D20256973005072696E7403
:1003E0002074696D653A200050726F74656374659E
:1003F000642050696E0A0045256920257300542D3C
:1004000052455820322B2072656164792E00B1026A
:10041000AC02A5029E0290026F66660044454255FA
:10042000473A004B494C4C45442E20004D31313366
:10043000205300542D52455820322B204F66662EF3
:10044000004649524D574152455F4E414D453A4D48
:1004500061726C696E202020284769746875622972
:1004600020534F555243455F434F44455F55524CCF
:100470003A68747470733A2F2F6769746875622EC6
:10048000636F6D2F4D61726C696E4669726D776135
:1004900072652F4D61726C696E2050524F544F43FC
:1004A0004F4C5F56455253494F4E3A312E30204DF6
:1004B000414348494E455F545950453A542D5245A1
:1004C0005820322B2045585452554445525F434FD3
:1004D000554E543A3220555549443A636564653265
:1004E0006132662D343161322D343734382D396222
:1004F00031322D6335356336326633363766660AF8
:10050000007A5F6D696E3A2000795F6D61783A20FC
:1005100000785F6D61783A2000785F6D696E3A20EF
:10052000005265706F7274696E6720656E647374D3
:100530006F70207374617475730A00536574746905
:100540006E672054726176656C20416363656C65EB
:10055000726174696F6E3A200053657474696E67D6
:10056000205265747261637420416363656C6572C7
:100570006174696F6E3A200053657474696E672008
:100580005072696E7420416363656C657261746951
:100590006F6E3A200053657474696E6720507269FB
:1005A0006E7420616E642054726176656C204163C4
:1005B00063656C65726174696F6E3A2000205A0041
:1005C000205900580020204D61783A2000205A0020
:1005D000205900580020204D696E3A20004F6E20AF
:1005E000004F666600536F667420656E6473746FA7
:1005F00070733A2000486F74656E64206F6666738E
:100600006574733A0020643A0020693A0020703A19
:100610000020643A0020693A0020703A0043290A19
:100620000061626C656420286D696E2074656D7070
:100630002000436F6C642065787472756465732064
:1006400061726520004B64200023646566696E65F5
:10065000202044454641554C545F004B69200023FF
:10066000646566696E65202044454641554C545F7B
:10067000004B70200023646566696E652020444548
:100680004641554C545F00504944204175746F7485
:10069000756E652066696E697368656421205075A2
:1006A0007420746865206C617374204B702C204B2F
:1006B0006920616E64204B6420636F6E7374616E99
:1006C00074732066726F6D2062656C6F7720696E3F
:1006D000746F20436F6E66696775726174696F6EBF
:1006E0002E680A00504944204175746F74756E6518
:1006F000206661696C6564212074696D656F75742D
:100700000A00504944204175746F74756E65206607
:1007100061696C6564212054656D706572617475E2
:10072000726520746F6F20686967680A00204B64E7
:100730003A2000204B693A2000204B703A20000AF2
:1007400020436C617373696320504944200A002080
:1007500054753A2000204B753A2000206D61783A9C
:100760002000206D696E3A200020643A200020624B
:100770006961733A2000426564204C6576656C6956
:100780006E6720004661696C656420746F20656E39
:1007900061626C6520426564204C6576656C696EAB
:1007A000670A00656570726F6D5F73746F72616761
:1007B000655F736C6F74203D200055424C5F4D4562
:1007C00053485F56414C4944203D20003F45455029
:1007D000524F4D2073746F72616765206E6F742085
:1007E000617661696C61626C6520666F72207573F9
:1007F000652E0A0A004D34323120726571756972B6
:10080000656420706172616D6574657273206D69D5
:100810007373696E670A004D65736820706F696E47
:10082000742063616E6E6F74206265207265736FF1
:100830006C7665640A004F66667365747320617038
:10084000706C696564004572723A20546F6F20665F
:1008500061722100546F6F206661722066726F6D45
:10086000207265666572656E636520706F696E746F
:100870000A003A20007A5F6D696E3A20202D3230EE
:10088000207A5F6D61783A20203230005A204F661E
:10089000667365742000486F74656E64206F6666C9
:1008A000736574733A004E6F2063617365206C69E1
:1008B0006768740A00556E6B6E6F776E20636F6D9C
:1008C0006D616E643A2022004E6F204C696E652087
:1008D0004E756D6265722077697468206368656320
:1008E0006B73756D2C204C617374204C696E653A86
:1008F00020004B494C4C45442E200053544F50503F
:1009000045442E20005072696E7465722073746FB6
:10091000707065642064756520746F206572726FF5
:1009200072732E2046697820746865206572726F34
:100930007220616E6420757365204D3939392074D9
:100940006F20726573746172742E202854656D7007
:100950006572617475726520697320726573657460
:100960002E2053657420697420616674657220724C
:10097000657374617274696E67290A004E6F204353
:100980006865636B73756D2077697468206C696E38
:1009900065206E756D6265722C204C617374204CFD
:1009A000696E653A2000636865636B73756D206DD1
:1009B00069736D617463682C204C617374204C6999
:1009C0006E653A20004C696E65204E756D626572E9
:1009D000206973206E6F74204C617374204C696EB3
:1009E00065204E756D6265722B312C204C617374DD
:1009F000204C696E653A20004D313130004D333165
:100A0000004D383420582059205A204500534420A6
:100A100072656164206572726F720A00446F6E6560
:100A2000207072696E74696E672066696C650A0071
:100A300020496E76616C69642065787472756465AE
:100A40007220000000E1430000C84300002F440072
:100A50000028C20000000000000000486F6D652003
:100A60002573257325732066697273740020666987
:100A70007273740A005A0059005800486F6D65205F
:100A80000053544F502063616C6C65642062656351
:100A900061757365206F6620424C546F75636820E2
:100AA0006572726F72202D2072657374617274208A
:100AB00077697468204D3939390A0053544F5020F2
:100AC00063616C6C65642062656361757365206F3A
:100AD0006620424C546F756368206572726F722095
:100AE0002D20726573746172742077697468204D6B
:100AF0003939390A00205A3A200020593A20004258
:100B0000656420583A2000436172642072656D6FFD
:100B1000766564004361726420696E736572746502
:100B2000640000060900FE070192032120FFFF0870
:100B3000FF07FF0000000600000107070602008013
:100B4000808080800080030202060105A0A00507C6
:100B5000070600005050F850F850500507070600EF
:100B6000002078A07028F020050707060000C0C804
:100B700010204098180507070600006090A040A8C4
:100B80009068020303060104C040800307070601C2
:100B9000002040808080402003070706010080403D
:100BA000202020408005050506000120A870A8200F
:100BB0000505050600012020F82020020303060297
:100BC000FFC04080050101060003F8020202060290
:100BD00000C0C0050505060001081020408005077B
:100BE0000706000070888888888870030707060158
:100BF0000040C040404040E0050707060000708804
:100C000008708080F8050707060000F8102010081B
:100C100008F005070706000010305090F810100586
:100C20000707060000F880F0080888700507070627
:100C30000000708080F0888870050707060000F8C3
:100C40000810202020200507070600007088887003
:100C50008888700507070600007088887808087083
:100C6000020505060200C0C000C0C002060606025A
:100C7000FFC0C000C04080040707060000102040ED
:100C800080402010050303060002F800F80407075F
:100C90000601008040201020408005070706000064
:100CA00070880810200020050707060000708808DB
:100CB00068A8A870050707060000708888F888886B
:100CC00088050707060000F08888F08888F0050787
:100CD000070600007088808080887005070706007E
:100CE00000F08888888888F0050707060000F880EB
:100CF00080F08080F8050707060000F88080F0800B
:100D00008080050707060000708880B88888700515
:100D10000707060000888888F88888880107070682
:100D200002008080808080808005070706000038F0
:100D30001010101090600507070600008890A0C0F2
:100D4000A09088050707060000808080808080F8DA
:100D500005070706000088D8A8888888880507073F
:100D60000600008888C8A89888880507070600003C
:100D700070888888888870050707060000F08888D2
:100D8000F080808005070706000070888888A8909A
:100D900068050707060000F08888F0A0908805071E
:100DA00007060000788080700808F0050707060035
:100DB00000F8202020202020050707060000888852
:100DC00088888888700507070600008888888888D2
:100DD00050200507070600008888888888A85005E5
:100DE00007070600008888502050888805070706F6
:100DF000000088888850202020050707060000F89A
:100E00000810204080F8030707060100E08080807A
:100E10008080E005050506000180402010080307DA
:100E200007060100E02020202020E0050303060043
:100E300004205088050101060000F80202020602A3
:100E400005804005050506000070087888780507CC
:100E5000070600008080B0C88888F00505050600F8
:100E600000708080887005070706000008086898F1
:100E70008888780505050600007088F880700507E9
:100E8000070600003048E0404040400506060600E6
:100E9000FF7088887808700507070600008080B01A
:100EA000C88888880107070602008000808080804B
:100EB000800308080601FF200020202020A0400415
:100EC0000707060000808090A0C0A09003070706D7
:100ED0000100C04040404040E0050505060000D04C
:100EE000A8A8A8A8050505060000B0C88888880538
:100EF000050506000070888888700506060600FF54
:100F0000F08888F080800506060600FF78888878DB
:100F10000808050505060000B0C8808080050505A5
:100F200006000070807008F00407070600004040CB
:100F3000E040404030050505060000888888986834
:100F4000050505060000888888502005050506006F
:100F5000008888A8A8500505050600008850205084
:100F6000880506060600FF8888887808700505054C
:100F7000060000F8102040F8030707060100204093
:100F8000408040402001070706020080808080806A
:100F90008080030707060100804040204040800514
:100FA0000202060002689000000006000000000037
:100FB000060000000000060000000000060000001F
:100FC000000006000000000006000000000006000F
:100FD0000000000006000000000006000000000005
:100FE00006000000000006000000000006000000EF
:100FF00000000600000000000600000000000600DF
:1010000000000000060000000000060000000000D4
:1010100006000000000006000000000006000000BE
:1010200000000600000000000600000000000600AE
:1010300000000000060000000000060000000000A4
:10104000060000000000060000000000060000008E
:10105000000006000000000006000000000006007E
:101060000000000006000000000006000000000074
:101070000600000107070602008000808080808053
:101080000507070600002070A8A0A8702005070724
:10109000060000304040E04050A80505050600006D
:1010A0008870507088050707060000885020F820D7
:1010B000F8200107070602008080800080808005FC
:1010C00008080600003048205050209060030101BD
:1010D000060107A0050707060000F888B8B8B88819
:1010E000F8050707060001700878887800F80505FC
:1010F000050600012850A05028050303060001F84A
:1011000008080202020602064080050707060000E2
:10111000F888A88898A8F8050101060006F80404D4
:101120000406000360909060050707060000202079
:10113000F8202000F804050506000360902040F028
:10114000030505060003E020E020E002020206029B
:101150000640800508080600FF8888888898E8808F
:10116000800507070600007898987818181802027A
:1011700002060202C0C00202020602FF408003050E
:101180000506000340C04040E00507070600017067
:101190008888887000F8050505060001A0502850D1
:1011A000A00507070600008890A858B8080805079A
:1011B000070600008890B8489820380508080600FF
:1011C00000C040C048D838080805070706000020BE
:1011D000002040808870050808060000402000704C
:1011E00088F888880508080600001020007088F834
:1011F00088880508080600002050007088F8888854
:101200000508080600006890007088F888880508BE
:10121000080600005000708888F8888805080806CD
:1012200000002050207088F8888805070706000015
:101230003860A0B8E0A0B80508080600FF708880F4
:101240008088702060050808060000402000F880B3
:10125000F080F8050808060000081000F880F0800B
:10126000F8050808060000205000F880F080F80516
:1012700007070600005000F880F080F80308080611
:101280000100804000E0404040E003080806010003
:10129000204000E0404040E003080806010040A074
:1012A00000E0404040E0030707060100A000E040E6
:1012B0004040E0050707060000704848E8484870CD
:1012C00005080806000068900088C8A898880508E6
:1012D0000806000040207088888888700508080685
:1012E00000001020708888888870050808060000B3
:1012F00020500070888888700508080600006890F3
:101300000070888888700508080600005000708802
:1013100088888870050505060001885020508805DA
:1013200008080600FF1070A8A8A8A87040050808C3
:101330000600004020888888888870050808060014
:10134000001020888888888870050808060000201A
:1013500050008888888870050808060000500088BA
:1013600088888888700508080600001020885020AA
:101370002020200509090600FFC040704848704041
:1013800040E00408080601FF609090A09090E08083
:1013900005080806000040200070087888780508D5
:1013A00008060000102000700878887805080806F4
:1013B00000002050007008788878050808060000B2
:1013C00068900070087888780507070600005000CC
:1013D00070087888780508080600002050207008FA
:1013E000788878050606060000D02878A0A8500561
:1013F00006060600FF708088702060050808060059
:10140000004020007088F880700508080600001071
:1014100020007088F8807005080806000020500041
:101420007088F8807005070706000050007088F883
:10143000807003080806010080400040C04040E082
:1014400003080806010020400040C04040E00308B7
:101450000806010040A00040C04040E00307070626
:101460000100A00040C04040E0050707060000A0C2
:1014700040A010788870050808060000689000B049
:10148000C888888805080806000040200070888801
:101490008870050808060000102000708888887091
:1014A000050808060000205000708888887005082C
:1014B0000806000068900070888888700507070695
:1014C000000050007088888870050505060001201E
:1014D00000F800200507070600FF1070A8A8A870F4
:1014E00040050808060000402000888888986805A4
:1014F00008080600001020008888889868050808F9
:1015000006000020500088888898680507070600B4
:1015100000500088888898680509090600FF102097
:1015200000888888F808700407070601FFC040603B
:10153000506040E00508080600FF50008888887861
:101540000870556E696669656420426564204C6563
:1015500076656C696E672000616374697661746595
:10156000642E0A0A0064650053797374656D200067
:10157000496E76616C6964206D6170207479706564
:101580002E0A0A00496E76616C6964206D617020D4
:10159000747970652E0A0A003F2846296164652027
:1015A00068656967687420666F7220426564204CC4
:1015B0006576656C20436F7272656374696F6E2027
:1015C0006E6F7420706C61757369626C652E0A0AA7
:1015D000003F43616E2774206163746976617465AE
:1015E00020616E642064656163746976617465204E
:1015F0006174207468652073616D652074696D6520
:101600002E0A0A00496E76616C69642059206C6F5D
:10161000636174696F6E2073706563696669656480
:101620002E0A0A00496E76616C69642058206C6F3E
:10163000636174696F6E2073706563696669656460
:101640002E0A0A00426F7468205820262059206C08
:101650006F636174696F6E73206D7573742062655A
:10166000207370656369666965642E0A0A00496EB5
:1016700076616C696420677269642070726F62655C
:1016800020706F696E747320737065636966696535
:10169000642E0A0A003F2856296572626F7365201E
:1016A0004C6576656C20697320696D706C6175732B
:1016B00069626C652028302D34290A0A003F2852BF
:1016C00029657065746974696F6E20636F756E74D7
:1016D00020696E76616C69642028312B292E0A0AF4
:1016E00000446F696E67204732392055424C210013
:1016F000736176655F55424C5F61637469766528F6
:1017000029206572726F7200736176655F75626C15
:101710005F6163746976655F73746174655F616E40
:10172000645F64697361626C656428292063616C1D
:101730006C6564206D756C7469706C652074696D7E
:10174000657320696E206120726F772E0A007265C2
:1017500073746F72655F55424C5F6163746976653F
:101760002829206572726F7200726573746F7265DA
:101770005F75626C5F6163746976655F73746174D1
:10178000655F616E645F6C656176652829206361C1
:101790006C6C656420746F6F206D616E7920746964
:1017A0006D65732E0A0073616E69747920636865D4
:1017B000636B73207061737365642E0A000A4D4574
:1017C00053485F595F444953542020202020202053
:1017D00020000A4D4553485F585F44495354202028
:1017E000202020202020000A55424C5F4D455348C0
:1017F0005F4D41585F5920202020202020202000CC
:101800000A55424C5F4D4553485F4D41585F582043
:101810002020202020202020000A55424C5F4D45EA
:1018200053485F4D494E5F59202020202020202022
:1018300020000A55424C5F4D4553485F4D494E5F6D
:1018400058202020202020202020000A47524944F0
:101850005F4D41585F504F494E54535F592020000F
:101860000A475249445F4D41585F504F494E5453C7
:101870005F5820200073697A656F662875626C2E48
:10188000737461746529203A2000206D6573686562
:10189000732E0A0A00454550524F4D2063616E2059
:1018A000686F6C642000454550524F4D206672654C
:1018B0006520666F722055424C3A20007A5F76614F
:1018C0006C75655B5D5B5D2073697A653A200073BA
:1018D000697A656F662875626C29203A2020006558
:1018E0006E64206F6620454550524F4D20202020C9
:1018F000202020202020202020203A200046726531
:101900006520454550524F4D2073706163652073CB
:1019100074617274732061743A200075626C5F7335
:10192000746174655F726563757273696F6E5F630E
:10193000686B203A0075626C5F73746174655F61F7
:10194000745F696E766F636174696F6E203A002010
:101950002073746174653A004B696C6C2070696E19
:10196000206F6E203A00202000592D4178697320A5
:101970004D65736820506F696E74732061743A20EE
:1019800000202000582D41786973204D6573682030
:10199000506F696E74732061743A200075626C2E0A
:1019A000656570726F6D5F73746172743D007A5F0C
:1019B0006F66667365743A20007A70726F62655F55
:1019C0007A6F66667365743A2000706C616E6E653E
:1019D000722E7A5F666164655F6865696768742006
:1019E0003A200055424C206F626A65637420636F31
:1019F000756E743A2000204C6F616465642E004D52
:101A000065736820004E6F204D657368204C6F61D0
:101A10006465642E0063746976652E0A0A00496E57
:101A2000610053797374656D2056657273696F6ECA
:101A300020312E303020003A2000454550524F4D85
:101A40002044756D703A0A00206C6F6164656420F3
:101A500066726F6D20454550524F4D20616464722F
:101A600065737320005375627472616374696E6785
:101A7000204D65736820003F454550524F4D2073FF
:101A8000746F72616765206E6F7420617661696C36
:101A900061626C6520666F72207573652E0A0A009C
:101AA0003F4D6573682023207265717569726564A6
:101AB0002E0A0A004D65736820456469746F7200D0
:101AC000446F6E652045646974696E67204D657367
:101AD000680A00446F6E652045646974696E67200A
:101AE0004D657368004D6573682045646974696E5F
:101AF000672053746F7070656400417474656D7015
:101B00007420746F2065646974206F666620746841
:101B100065206265642E0A0046696E652054756E04
:101B2000696E67204D6573680045787472756465E9
:101B3000723200457874727564657231004578744C
:101B40007275646572004D6F7665205A004D6F7630
:101B5000652059004D6F76652058005072657061A0
:101B6000726500526573746F7265206661696C738B
:101B7000616665004C6F6164206D656D6F72790000
:101B800053746F7265206D656D6F72790046696C74
:101B9000616D656E74004D6F74696F6E0054656D94
:101BA0007065726174757265004D61696E00507286
:101BB00065686561742041425320636F6E66005012
:101BC00072656865617420504C4120636F6E6600D9
:101BD0005049442D44005049442D44005049442D5F
:101BE00049005049442D49005049442D5000504966
:101BF000442D5000200820466163740020082046D0
:101C0000616374002008204D6178002008204D6138
:101C100078002008204D6178002008204D696E0072
:101C20002008204D696E002008204D696E004F6627
:101C300066004F6E20004175746F74656D700046CC
:101C4000616E20737065656420320046616E20739A
:101C50007065656420320046616E2073706565644E
:101C600020310046616E207370656564203100424A
:101C7000656400426564004E6F7A7A6C65203200BC
:101C80004E6F7A7A6C652032004E6F7A7A6C6520DE
:101C900031004E6F7A7A6C65203100436F6E74723A
:101CA0006F6C0053746F7265206D656D6F72790093
:101CB00042656400426564004E6F7A7A6C65004E3E
:101CC0006F7A7A6C650046616E207370656564009A
:101CD00046616E2073706565640054656D70657251
:101CE0006174757265005072656865617420414267
:101CF00053204265640050726568656174204142FA
:101D00005320416C6C0050726568656174204142DB
:101D10005320456E642045320050726568656174D9
:101D20002041425320320050726568656174204141
:101D3000425320456E6420453100507265686561EC
:101D40007420414253203100507265706172650009
:101D50004732380A47323900473239004C657665D8
:101D60006C206265640043616E63656C004D3432C3
:101D700038004D3238302050302053313630005248
:101D80006573657420424C546F756368004D32383A
:101D900030205030205331323000424C546F756344
:101DA000682053656C662D546573740050726568C5
:101DB000656174204142530050726568656174200A
:101DC000504C4100436F6F6C646F776E004D383438
:101DD0000044697361626C6520737465707065722C
:101DE000730053657420686F6D65206F6666736558
:101DF0007473004C6576656C20626564004D350037
:101E00004C61736572206F6666004D33004C6173E0
:101E10006572206F6E004D323234004C6564206F65
:101E20006666004D323235004C6564206F6E0047A7
:101E30003238004175746F20686F6D65004D6F76A4
:101E4000652061786973004D61696E004D6F76653C
:101E50002058004D6F76652059004D6F7665205AE9
:101E600000457874727564657232004578747275D5
:101E700064657231004D6F766520302E316D6D00D6
:101E80004D6F766520316D6D004D6F766520313078
:101E90006D6D004D6F7665206178697300457874CB
:101EA0007275646572004D6F7665205A004D6F76CD
:101EB000652059004D6F766520580020746F6F20A3
:101EC0006C6F6E6720657874727573696F6E2070C1
:101ED000726576656E7465640A0020636F6C6420B9
:101EE000657874727573696F6E2070726576656E51
:101EF0007465640A004572726F7220777269746942
:101F00006E6720746F20454550524F4D210A0020C6
:101F10006279746573290A0053657474696E677316
:101F20002053746F72656420280055424C20537909
:101F30007374656D20726573657428290A00206CBE
:101F40006F616465642066726F6D2073746F726177
:101F500067652E0A004D65736820000A556E696634
:101F600069656420426564204C6576656C696E67BE
:101F70002073797374656D20696E697469616C6929
:101F80007A65642E0A0A003F556E61626C652074A2
:101F90006F20656E61626C6520556E696669656467
:101FA00020426564204C6576656C696E67207379A4
:101FB0007374656D2E0A00616374697665210A0089
:101FC0002055424C2000454550524F4D20636865D6
:101FD000636B73756D206D69736D617463680A005E
:101FE000206279746573290A002073746F726564C6
:101FF0002073657474696E677320726574726965A5
:10200000766564202800204D61726C696E3D563300
:1020100037290A0028454550524F4D3D004545504F
:10202000524F4D2076657273696F6E206D69736DC6
:1020300061746368200048617264636F6465642042
:1020400044656661756C742053657474696E67735A
:10205000204C6F616465640A00000022002500289E
:10206000002B002E003100340002010000050108A1
:10207000010B01000020002300260029002C002F66
:1020800000320000010000030106010901050505F9
:1020900005070508080808020202020A0A080804DF
:1020A000040404010101010101010103030303030D
:1020B000030303040707070C0C0C0C0C0C0C0C029C
:1020C00002020206060606060606060B0B0B0B0BA3
:1020D0000B0B0B010210202008081020401020409C
:1020E00080020102010804020101020408102040DC
:1020F00080804020100804020180040201804020FA
:102100001008040201080402010102040810204022
:1021100080010204081020408000000A0B02090C14
:102120000D0E08070304010000000000000000007D
:10213000000000000000000000000000000000009F
:10214000000000000012111000000000000000005C
:102150000000000000000000000000000000004B34
:10216000494C4C45442E2000202D20496E76616C50
:102170006964206578747275646572206E756D622D
:10218000657220210A002020506C616E6E657242DB
:10219000756666657242797465733A2000204672EE
:1021A0006565204D656D6F72793A2000436F6D70E3
:1021B000696C65643A2044656320203320323031F5
:1021C000370A00207C20417574686F723A20286EAF
:1021D0006F6E652C2064656661756C7420636F6E2C
:1021E000666967290A00323031372D30352D303499
:1021F0002031323A303000204C61737420557064C5
:10220000617465643A2000200A004D61726C696E49
:102210000020536F66747761726520526573657430
:102220000A00205761746368646F672052657365A4
:10223000740A002042726F776E206F7574205265A9
:102240007365740A002045787465726E616C205263
:10225000657365740A00506F77657255700A007374
:10226000746172740A006572726F72207772697499
:10227000696E6720746F2066696C650A00456E643C
:1022800073746F70732025632025632025632025D8
:102290006300205A3A0020593A0020583A00656EEF
:1022A0006473746F7073206869743A2000446F6EB1
:1022B0006520736176696E672066696C652E0A0019
:1022C0004D3239002020202E2020004E414E000AA1
:1022D00042656420546F706F677261706879205234
:1022E00065706F72743A0A0A00005A2D4F66667361
:1022F00065742053746F70706564000A5A2D4F66C0
:10230000667365742041646A7573746D656E7420BC
:1023100053746F707065642E0A00446F6E652E0AE8
:102320000A003F557365203020746F20003F4545FB
:1023300050524F4D2073746F72616765206E6F74D9
:1023400020617661696C61626C6520666F722075D0
:1023500073652E0A0A002C20592000203B205820AB
:1023600000205A2000204A20004D343231204920DC
:10237000004732392049203939390A00446F6E65E7
:102380002E0A0A003F454550524F4D2073746F721C
:10239000616765206E6F7420617661696C61626C43
:1023A0006520666F72207573652E0A0A0047323900
:1023B0002050322066696E69736865640A003F4583
:1023C00072726F7220696E20427573696E657373E5
:1023D0002043617264206D6561737572656D656E11
:1023E000742E0A0A004D616E75616C6C79207072F2
:1023F0006F62696E6720756E726561636861626C99
:1024000065206D657368206C6F636174696F6E73AE
:102410002E0A0A00290A0A0050726F62696E67204C
:102420004D65736820506F696E747320436C6F73D1
:1024300065737420746F2028004D65736820696E81
:1024400076616C6964617465642E2050726F626994
:102450006E67206D6573682E0A0A004D65736820EB
:102460007A65726F65642E0A0A00496E76616C693E
:10247000642050686173652076616C75652E202834
:10248000302D34290A0A004552524F52202D206720
:102490007269642073697A65206D75737420626552
:1024A000206265747765656E203220616E64203924
:1024B0000A004C6F6164696E6720746573745F70A5
:1024C00061747465726E2076616C7565732E0A0A8C
:1024D00000496E76616C696420746573745F706125
:1024E000747465726E2076616C75652E2028302DAF
:1024F00032290A0A004C6F636174696F6E73206938
:102500006E76616C6964617465642E0A0A00456EBA
:1025100074697265204D65736820696E76616C69B7
:1025200064617465642E0A0A0077697468204D3509
:1025300030322C204D3530302C204D353031206953
:102540006E2074686174206F726465722E0A0A00CE
:102550003F596F75206E65656420746F20656E61EC
:10256000626C6520796F757220454550524F4D2041
:10257000616E6420696E697469616C697A6520694D
:10258000740A0024F4D43050C38E20C2A2401782B3
:102590008B7011127A910D816CD90AA861E108C77C
:1025A000586607615143061E4B5D05C145A7041AD5
:1025B000411104093D9803713931034036DB02654E
:1025C000339102D4305402802E1D02632CEE01752B
:1025D0002AC501B028A001102781018F2564012B95
:1025E000244B01E0223401AC211F018D200D01801C
:1025F0001FFC00841EED00971DDF00B81CD200E612
:102600001BC600201BBC00641AB200B219A8000A45
:1026100019A0006A189900D117910040178B00B5D6
:1026200016840031167E00B31579003A157300C781
:10263000146F0058146A00EE1366008813630025B7
:10264000135E00C7125B006C12570015125400C1D4
:1026500011510070114F0021114B00D61049008D0F
:102660001047004610440002104200C00F40008096
:102670000F3E00420F3C00060F3B00CB0E3800938C
:102680000E37005C0E3500270E3400F30D3200C10A
:102690000D3100900D3000600D2E00320D2D000523
:1026A0000D2C00D90C2B00AE0C2900850C29005CE8
:1026B0000C2700350C27000E0C2600E80B2400C464
:1026C0000B2400A00B23007D0B23005A0B210039A3
:1026D0000B2100180B2000F80A1F00D90A1E00BBAE
:1026E0000A1E009D0A1D00800A1D00630A1C004787
:1026F0000A1B002C0A1B00110A1A00F7091A00DD38
:10270000091900C4091900AB091900920917007BC7
:10271000091800630917004C091600360916002035
:102720000916000A091500F5081500E0081400CC88
:10273000081400B8081400A4081400900813007DC1
:102740000812006B081300580812004608120034E3
:10275000081100230811001208110001081100F0EF
:10276000071000E0071000D0071000C0071000B0ED
:10277000070F00A107100091070E0083070F0074D8
:10278000070F0065070E0057070E0049070E003BB4
:10279000070D002E070E0020070D0013070D000681
:1027A000070D00F9060C00ED060D00E0060C00D444
:1027B000060C00C8060C00BC060C00B0060C00A4F9
:1027C000060B0099060C008D060B0082060B0077A5
:1027D000060B006C060B0061060A0057060B004C46
:1027E000060A0042060A0038060A002E060A0024DD
:1027F000060A001A060A001006090007060A00FD6C
:10280000050900F4050900EB050900E2050900D9F6
:10281000050900D0050900C7050900BE050900B576
:10282000050800AD050800A50509009C05080094F1
:102830000508008C050800840508007C0508007464
:102840000508006C050700650508005D05070056D2
:102850000508004E05070047050700400508003839
:10286000050700310507002A050700230507001C9E
:10287000050600160507000F0507000805060002FB
:10288000050700FB040600F5040700EE040600E857
:10289000040600E2040700DB040600D5040600CFAE
:1028A000040600C9040600C3040600BD040600B700
:1028B000040600B1040500AC040600A6040600A04E
:1028C0000405009B04060095040500900406008A98
:1028D00004050085040500800406007A04050075DF
:1028E000040500700405006B040500660405006122
:1028F0000405005C04050057040500520405004D62
:1029000004050048040500430405003E0404003AA1
:1029100004050035040500300404002C04050027DC
:10292000040400230405001E0404001A0404001615
:10293000040500110404000D04040009040500044A
:1029400004040000040400FC030400F8030400F481
:10295000030400F0030400EC030400E8030400E4B3
:10296000030400E0030400DC030400D8030400D4E3
:10297000030400D0030400CC030400C8030300C513
:1029800003030024F404D9201BC40C5C0E9804C477
:10299000095F0265077101F405F900FB04B3004803
:1029A000048700C10369005803550003034500BEB6
:1029B000023A008402310053022A00290225000451
:1029C000022000E4011C00C8011900AF01170098A3
:1029D0000114008401130071011000610110005105
:1029E000010E0043010D0036010B002B010B0020EE
:1029F000010B00150109000C01090003010800FB8F
:102A0000000800F3000800EB000700E4000600DE09
:102A1000000600D8000600D2000600CC000500C762
:102A2000000500C2000500BD000400B9000400B5A7
:102A3000000400B1000400AD000400A9000400A5DA
:102A4000000300A20003009F0004009B0003009805
:102A50000003009500020093000300900003008D26
:102A60000002008B00030088000200860002008440
:102A7000000300810002007F0002007D0002007B55
:102A80000002007900020077000100760002007465
:102A900000020072000100710002006F0002006D70
:102AA0000001006C0002006A00010069000200677A
:102AB0000001006600010065000100640002006280
:102AC00000010061000100600001005F0002005D84
:102AD0000001005C0001005B0001005A0001005988
:102AE0000001005800010057000100560001005588
:102AF0000001005400010053000000530001005287
:102B000000010051000100500001004F0001004E83
:102B10000000004E0001004D0001004C0001004B80
:102B20000000004B0001004A00010049000100487C
:102B30000000004800010047000100460000004678
:102B40000001004500000045000100440001004371
:102B5000000000430001004200000042000100416B
:102B600000000041000100400001003F0000003F64
:102B70000001003E0000003E0001003D0000003D5D
:102B80000001003C0000003C0000003C0001003B54
:102B90000000003B0001003A0000003A000100394B
:102BA0000000003900010038000000380000003843
:102BB0000001003700000037000100360000003639
:102BC000000000360001003500000035000000352F
:102BD0000001003400000034000000340001003324
:102BE000000000330000003300010032000000321A
:102BF000000000320001003100000031000000310F
:102C00000001003000000030000000300001002F03
:102C10000000002F0000002F0000002F0001002EF8
:102C20000000002E0000002E0001002D0000002DED
:102C30000000002D0000002D0001002C0000002CE1
:102C40000000002C0000002C0001002B0000002BD5
:102C50000000002B0000002B0001002A0000002AC9
:102C60000000002A0000002A0001002900000029BD
:102C700000000029000000290000002900010028B0
:102C800000000028000000280000002800000028A4
:102C90000001002700000027000000270000002797
:102CA000000000270001002600000026000000268A
:102CB000000000260000002600010025000000257D
:102CC0000000002500000025000000250000002570
:102CD0000001002400000024000000240000002463
:102CE0000000002400010023000000230000002356
:102CF0000000002300000023000000230000002348
:102D0000000100220000002200000022000000223A
:102D1000000000220000002200010021000000212C
:102D2000000000210000002100000021000000211F
:102D30000000002100010020000000200000002011
:102D40000000002000000020000000200000002003
:102D5000000000200001001F0000001F0000001FF5
:102D60000000001F0000001F0000001F0000001FE7
:102D70000001001E0000001E0000001E0000001EDA
:102D80000000004D383420582059205A2045007C3E
:102D90003C3E5E2B3D3F2F5B5D3B2C2A225C00209E
:102DA000204D383531205A005A2D50726F626520FF
:102DB0004F666673657420286D6D293A0A002044B9
:102DC0000020490020204D333034205000204400A2
:102DD00020490020204D3330312050002044002075
:102DE000490020500020204D33303120450050490B
:102DF000442073657474696E67733A0A0020460054
:102E000020420020480020204D3134352053004D11
:102E10006174657269616C20686561747570207099
:102E20006172616D65746572733A0A004D4553486D
:102E30005F595F444953542020004D4553485F5823
:102E40005F444953542020003D0055424C5F4D459E
:102E500053485F4D41585F59202028343030202D91
:102E60002028302929003D0055424C5F4D455348EC
:102E70005F4D41585F58202028343530202D2028C0
:102E800035302929003D0055424C5F4D4553485F80
:102E90004D494E5F5920202830202B203029003DFD
:102EA0000055424C5F4D4553485F4D494E5F582099
:102EB00020282D3432202B20353029004752494418
:102EC0005F4D41585F504F494E54535F5920200089
:102ED000475249445F4D41585F504F494E54535FEC
:102EE00058202000206D65736865732E0A0A00451E
:102EF0004550524F4D2063616E20686F6C64200016
:102F00007A5F6F66667365743A20006374697665EC
:102F10000A0A416374697665204D65736820536CB5
:102F20006F743A2000496E61000A55424C20697363
:102F30002000205A0020204D343230205300556E9E
:102F4000696669656420426564204C6576656C69D4
:102F50006E673A0A00205A002059002058002020AD
:102F60004D323138205400486F74656E64206F66AE
:102F700066736574733A0A00205A002059002020B5
:102F80004D323036205800486F6D65206F6666738D
:102F900065743A0A00204500205A00205900205844
:102FA0000020420020540020204D323035205300B4
:102FB000416476616E6365643A20533C6D696E5F6F
:102FC00066656564726174653E20543C6D696E5F30
:102FD00074726176656C5F66656564726174653E86
:102FE00020423C6D696E5F7365676D656E745F74DA
:102FF000696D655F6D733E20583C6D61785F7879CF
:103000005F6A65726B3E205A3C6D61785F7A5F6AD9
:1030100065726B3E20453C6D61785F655F6A6572E5
:103020006B3E0A0020540020520020204D323034E4
:10303000205000416363656C65726174696F6E2036
:1030400028756E6974732F7332293A20503C707260
:10305000696E745F616363656C3E20523C72657497
:10306000726163745F616363656C3E20543C74728B
:103070006176656C5F616363656C3E0A00204500A4
:10308000205A0020590020204D3230312058004D68
:103090006178696D756D20416363656C65726174FB
:1030A000696F6E2028756E6974732F7332293A0A1E
:1030B00000204500205A0020590020204D32303396
:1030C0002058004D6178696D756D20666565647284
:1030D000617465732028756E6974732F73293A0AB9
:1030E00000204500205A0020590020204D39322070
:1030F000580053746570732070657220756E697422
:103100003A0A0020204D3230302044300A0020207E
:103110004D32303020543120440020204D323030A8
:103120002044002044697361626C65640A0046694A
:103130006C616D656E742073657474696E67733A43
:10314000002020473231203B20556E69747320697E
:103150006E206D6D0A0A0042656420646F6E652EF4
:10316000003F0A0020573A004265642048656174B8
:10317000696E672E004D31343520533C696E6465AD
:10318000783E206F7574206F662072616E676520CF
:1031900028302D31290A00205A3A0020593A0020BF
:1031A000436F756E7420583A0020453A00205A3A11
:1031B0000020593A00583A00206F7574206F66203D
:1031C00072616E67650A00536572766F20003A205F
:1031D0000020536572766F20004163746976652024
:1031E00045787472756465723A20004E6F206D6F79
:1031F0007665206F6E20746F6F6C6368616E6765B3
:103200000A006265640A002C2073797374656D206E
:1032100073746F7070656421204865617465725FB6
:1032200049443A200048656174696E6720666169A7
:103230006C65640048656174696E67206661696CDD
:1032400065640070012C0190012701B0012201C0CA
:10325000011D01F00118011002130130020E01607E
:1032600002090190020401C002FF000003FA0040BD
:1032700003F5008003F000D003EB002004E60070AB
:1032800004E100E004DC004005D700C005D20040A6
:1032900006CD00D006C8008007C3003008BE00F08D
:1032A00008B900C009B400B00AAF00B00BAA00D042
:1032B0000CA500000EA000500F9B00C010960050FF
:1032C00012910000148C00C0158700B0178200B066
:1032D000197D00D01B7800001E730040206E009006
:1032E000226900F024640040275F0090295A00E022
:1032F0002B5500102E500020304B0010324600E0BD
:1033000033410090353C001037370070383200A050
:10331000392D00B03A2800A03B2300603C1E00106D
:103320003D1900903D1400103E0F00703E0A00C091
:103330003E0500003F0000403FFBFF803FF6FFC01E
:103340003FF1FF4572723A204D494E54454D502091
:10335000424544004572723A204D494E54454D5005
:10336000004D494E54454D5020747269676765722F
:103370006564004572723A204D415854454D5020C5
:10338000424544004572723A204D415854454D50D3
:10339000004D415854454D502074726967676572FD
:1033A000656400206174206F666673657420004D4B
:1033B000657368206C6F616465642066726F6D2050
:1033C000736C6F7420003F454550524F4D2073740D
:1033D0006F72616765206E6F7420617661696C61E0
:1033E000626C6520746F206C6F6164206D6573681A
:1033F0002E0A0A003F4E6F206D6573682073617658
:10340000656420696E20454550524F4D2E205A6507
:10341000726F696E67206D65736820696E206D65D7
:103420006D6F72792E0A0A00206174206F666673D0
:10343000657420004D65736820736176656420694A
:103440006E20736C6F7420006D20202020202020BF
:1034500020203A20006A2020202020202020203A0E
:1034600020006B2020202020202020203A20004512
:1034700032454E4420202020203A2000206D6573E4
:103480006820736C6F747320617661696C61626C23
:10349000652E0A0A003F454550524F4D2073746F08
:1034A00072616765206E6F7420617661696C61621C
:1034B0006C6520746F206C6F6164206D6573682E7D
:1034C0000A0A0025753A2530327500253032753AE2
:1034D000253032750025756420253032753A253047
:1034E0003275005A00590058000920000000000001
:1034F00000000000000000007FFFE000000000006E
:10350000000000000000007000E00000000000006B
:1035100000000000000061F86000000000000000F2
:10352000000000000041F820000000000000000042
:103530000000000040F0200000000000000000003B
:1035400000000040602000000000000000000000BB
:1035500000005801A07F80003FC00000000041042F
:10356000005C63A0FBC00079E00000000020820046
:103570005EF7A0F3C00076E0000000002082005E4D
:10358000F7A0EBC0007EE0000000004104005C6397
:10359000A07B80003DC0000000008208005801A010
:1035A0007B80003BC000000001041000406020FB55
:1035B000C00077E00000000104100040F020FBC0D4
:1035C0000070E00000000082080041F820FFC00009
:1035D0007FE00000000041040061F8603F00001F30
:1035E00080000000000000007000E01E00000F00DE
:1035F00000000001FFFF807FFFE00C0000060000DC
:10360000000001FFFF80000000000000000000003B
:1036100000000000007FFFE000000000000000004C
:10362000000000007000E00000000000000000004A
:10363000000000630C6000000000000000000000BB
:103640000000470E20000000000000000000000005
:10365000004F0F20000000000000000000000000EC
:103660005F0FA00000000000000000000000005EEE
:1036700007A07F80003FC0000000004104004060C0
:1036800020FBC00079E00000000020820040F02014
:10369000F3C00076E00000000020820040F020EB44
:1036A000C0007EE0000000004104004060207B80FC
:1036B000003DC0000000008208005E07A07B800083
:1036C0003BC0000000010410005F0FA0FBC00077AA
:1036D000E0000000010410004F0F20FBC00070E06C
:1036E00000000000820800470E20FFC0007FE000BD
:1036F000000000410400630C603F00001F800000D8
:1037000000000000007000E01E00000F000000003C
:1037100001FFFF807FFFE00C0000060000000001B9
:10372000FFFF8000000000060900FE00000000000E
:1037300001090008FE000005080806000040F0C866
:103740008888987810050808060000C0F8888888DE
:103750008888F80505050600012030F830200508A6
:10376000080600002070F820202020E00509090646
:1037700000FF2070A8A8B8888870200509090600F5
:10378000FFE080C0B0A8283028280509090600FFFE
:10379000F8A88888888888A8F8050A0A0600FE2004
:1037A0005050505088A8A8887003030306000340B7
:1037B000A04043616E6E6F74206F70656E207375EC
:1037C0006264697220006563686F3A00544845522C
:1037D0004D414C2052554E41574159005468657235
:1037E0006D616C2052756E61776179005265736509
:1037F0006E643A20006F6B0020746F6F206C6F6EE8
:103800006720657874727573696F6E207072657663
:10381000656E7465640A0020636F6C64206578745B
:10382000727573696F6E2070726576656E7465640B
:103830000A0053442063617264206F6B0A006F704A
:10384000656E526F6F74206661696C65640A0076FC
:103850006F6C756D652E696E6974206661696C6543
:10386000640A00534420696E6974206661696C0AB9
:10387000006175746F25692E67004D3234004D323A
:10388000332025730057726974696E6720746F2046
:1038900066696C653A20006F70656E206661696CC0
:1038A00065642C2046696C653A20006F70656E2057
:1038B0006661696C65642C2046696C653A20004637
:1038C000696C652073656C65637465640A002053D8
:1038D000697A653A200046696C65206F70656E658F
:1038E000643A20006F70656E206661696C65642CB7
:1038F0002046696C653A20002066696C653A2000B4
:103900004E6F7720002220706F730022207061724A
:10391000656E743A2200535542524F5554494E45F4
:103920002043414C4C207461726765743A22004B0D
:10393000494C4C45442E2000747279696E6720749E
:103940006F2063616C6C207375622D67636F6465B3
:103950002066696C6573207769746820746F6F20C6
:103960006D616E79206C6576656C732E204D4158C3
:10397000206C6576656C2069733A004572726F72CF
:103980003A005A2070726F6265206F75742E206243
:1039900065640A005A2070726F6265206F75742E1C
:1039A0002062656400473238205A20466F7262698F
:1039B0006464656E0A00473238205A20466F72628E
:1039C000696464656E002040002042403A00204057
:1039D0003A00202F00205400202F0020423A0020DF
:1039E0002F0020543A006F6B0048656174696E6760
:1039F00020646F6E652E003F0A0020573A0045256F
:103A00006920257300542D52455820322B207265B1
:103A10006164792E00000000000000007F8000003B
:103A2000000000000000000000000007FFF8000098
:103A300000000000000000000000000FFFFE00007A
:103A400000000000000000000000007FFFFF800079
:103A50000000000000000000000007FFFFFFF00072
:103A6000000000000000000000001F8000000000B7
:103A7000000000000000000000007F0000000000C7
:103A800000000000000000000000FE000000000038
:103A900000000000000000000000FE000000000028
:103AA00000000000000000000001FE007FFFFFE0BA
:103AB00000000000000000000001FE01FFFFFFE029
:103AC00000000000000000000001FE01FFFFFFE019
:103AD00000000000000000000001FE01FFFFFFE009
:103AE00000000000000000000001FE01FFFFFFE0F9
:103AF00000000000000000000001FE01FFFFFFE0E9
:103B000000000000000000000001FE01FFFFFFE0D8
:103B100000000000000000000001FE01FFFFFFE0C8
:103B200000000000000000000001FE01FFFFFFE0B8
:103B300000000000000000000001FE01FFFFFFE0A8
:103B400000000000000000000001FE000000000076
:103B500000000000000000000001FE000000000066
:103B600000000000000000000001FE000000000056
:103B700000000000000000000000FE000000000047
:103B800000000000000000000000FE01FFFFFFE059
:103B900000000000000000000000FE01FFFFFFE049
:103BA000000000000000000000001E01FFFFFF00F9
:103BB000000000000000000000000601FFFFF80008
:103BC000000000000000000000000101FFFFF00005
:103BD000000000000000000000000071FFFF000076
:103BE000000000000000000000000009FFF80000D5
:103BF000000000000000000000000007FFF80000C7
:103C00000000000000000000000000007F00000035
:103C100000000000000000000000000000000000A4
:103C20000000000000000000000000000000000094
:103C30000000000000000000000000000000000084
:103C40000000000000000000000000000000000074
:103C50000000000000000000000000000000000064
:103C60000000000000000000000000000000000054
:103C70000000000000000000000000000000000044
:103C800000000000000000FF87F81FF0F0787F8040
:103C9000FF0FFE00000000E01E0F1878F8F8718793
:103CA0008780E000000000E018071878F8F87187B6
:103CB0000180E000000000FF18071870F9F8FF8786
:103CC00001E0E000000000E0180719819FF8F1878B
:103CD0000180E000000000E0180718E19FF8E1878C
:103CE0008180E000000000E01F1E18F18F78E1875E
:103CF0008780E0000000018007F018718E78FE00D8
:103D000078008000000000000000000000000000BB
:103D10000000000000004261627973746570205AEF
:103D200000466C6F77203200466C6F772032004679
:103D30006C6F77203100466C6F77203100466C6FD6
:103D40007700466C6F770046616E2073706565641E
:103D500020320046616E2073706565642032004633
:103D6000616E20737065656420310046616E20735A
:103D70007065656420310042656400426564004EF0
:103D80006F7A7A6C652032004E6F7A7A6C652032D9
:103D9000004E6F7A7A6C652031004E6F7A7A6C65CE
:103DA0002031005370656564005370656564004D93
:103DB00035004C61736572206F6666004D33004CB0
:103DC00061736572206F6E004D323234004C656451
:103DD000206F6666004D323235004C6564206F6E90
:103DE000004D61696E005072656865617420504CC9
:103DF0004120426564005072656865617420504CD2
:103E00004120416C6C005072656865617420504CB3
:103E10004120456E642045320050726568656174CA
:103E200020504C412032005072656865617420500A
:103E30004C4120456E6420453100507265686561D3
:103E40007420504C412031005072657061726500E1
:103E5000627573793A2070617573656420666F725C
:103E600020696E7075740A00627573793A2070610A
:103E70007573656420666F7220757365720A0062DF
:103E80007573793A2070726F63657373696E670A30
:103E9000004B494C4C45442E20004B494C4C206370
:103EA0006175736564206279204B494C4C206275C2
:103EB00074746F6E2F70696E0A004B494C4C454408
:103EC0002E20004B494C4C20636175736564206261
:103ED0007920746F6F206D75636820696E616374FB
:103EE0006976652074696D65202D20637572726531
:103EF0006E7420636F6D6D616E643A2000506C6566
:103F0000617365207265736574005052494E544563
:103F1000522048414C544544005072696E74657299
:103F20002068616C7465642E206B696C6C28292094
:103F300063616C6C6564210A00000028C20000C83F
:103F40004300000000656E7175657565696E6720D8
:103F5000220053544F505045442E20005072696E39
:103F60007465722073746F70706564206475652069
:103F7000746F206572726F72732E20466978207498
:103F80006865206572726F7220616E64207573655A
:103F9000204D39393920746F2072657374617274E1
:103FA0002E202854656D7065726174757265206984
:103FB000732072657365742E2053657420697420B4
:103FC00061667465722072657374617274696E677C
:103FD000290A005761726E696E673A20486F6D69F1
:103FE0006E672042756D702044697669736F722028
:103FF0003C20310A000000A0400000A0400000006A
:10400000400000F6430000C84300002F44FF01FFBA
:104010004573746570732F6D6D00457374657073AF
:104020002F6D6D005A73746570732F6D6D005A7328
:10403000746570732F6D6D005973746570732F6D97
:104040006D005973746570732F6D6D0058737465CE
:1040500070732F6D6D005873746570732F6D6D00E4
:10406000412D74726176656C00412D7472617665C4
:104070006C00412D7265747261637400412D72652C
:10408000747261637400416D6178204500416D6117
:1040900078204500416D6178205A00416D6178209B
:1040A0005A00416D6178205900416D6178205900B6
:1040B000416D6178205800416D6178205800565458
:1040C000726176206D696E005654726176206D695A
:1040D0006E005654726176206D696E00566D696E81
:1040E00000566D696E00566D696E00566D617820E0
:1040F0004500566D6178204500566D617820450079
:10410000566D6178205A00566D6178205A00566DC0
:104110006178205A00566D6178205900566D61789B
:10412000205900566D6178205900566D61782058ED
:1041300000566D6178205800566D61782058005601
:10414000652D6A65726B0056652D6A65726B005647
:10415000652D6A65726B00567A2D6A65726B005622
:104160007A2D6A65726B0056792D6A65726B0056FE
:10417000792D6A65726B0056792D6A65726B0056EF
:10418000782D6A65726B0056782D6A65726B0056E1
:10419000782D6A65726B00416363656C00416363EF
:1041A000656C005A204F6666736574005A204F662E
:1041B0006673657400436F6E74726F6C0053746144
:1041C0006E6461726420446576696174696F6E3AE9
:1041D00020004D65616E204D6573682048656967F4
:1041E00068743A200023206F662073616D706C65DF
:1041F000733A2000417474656D707420746F207080
:10420000726F6265206F66662074686520626564FF
:104210002E0A000A4D657368206F6E6C79207061FC
:10422000727469616C6C7920706F70756C61746503
:10423000642E0A0A00200A004420636F6E737461C2
:104240006E743A2000726F746174696F6E206D61D4
:10425000747269783A005D0A0062656420706C616E
:104260006E65206E6F726D616C203D205B00206179
:104270006E642074616B652061206D656173757279
:10428000656D656E742E0A006D6D20746869636BD0
:104290002E0A00427573696E657373204361726400
:1042A0002069733A200052656D6F766520736869E6
:1042B0006D00506C616365207368696D20756E6474
:1042C0006572206E6F7A7A6C65004D657368205058
:1042D0006F696E74204D65617375726564206174D9
:1042E0003A20000A4D657368206F6E6C792070610A
:1042F000727469616C6C7920706F70756C61746533
:10430000642E0A00417474656D707420746F20709F
:10431000726F6265206F66662074686520626564EE
:104320002E0A005D0A0062656420706C616E652073
:104330006E6F726D616C203D205B002020443D005B
:104340002020423D004C534620526573756C7473B7
:1043500020413D002D2D2D2D2D2D2D2D2D2D2D2DA3
:104360002D002029202020002C20002C20002C2093
:1043700000202920202064657374696E6174696F60
:104380006E3D2820002C20002C20002C2000202016
:10439000202063757272656E743D282000202020F5
:1043A00066706D6D3D00000000410000104200008D
:1043B00080420000B8420000F042000014430000B8
:1043C000304300004C43000068430000824300007B
:1043D000904300009E430000AC430000BA4300003D
:1043E000C8430000D6432C79693D002C78315F69C1
:1043F0003D003F20696E207A5F636F72726563745F
:10440000696F6E5F666F725F785F6F6E5F686F7205
:10441000697A6F6E74616C5F6D6573685F6C696EED
:1044200065286C78303D00000000004992E4414965
:10443000926442B76DAB424992E4426EDB0E43B7E1
:104440006D2B430000484349926443499280436E78
:10445000DB8E4392249D43B76DAB43DBB6B943007B
:1044600000C8432449D6432C2079693D002C20788C
:10447000315F693D003F20696E206765745F7A5F38
:10448000636F7272656374696F6E5F616C6F6E6784
:104490005F766572746963616C5F6D6573685F6C8C
:1044A000696E655F61745F73706563696669635F98
:1044B00078286C79303D0000002100240027002A74
:1044C000002D003000330001010000040107010A43
:1044D000014D323830205030205339300053746F42
:1044E0007720424C546F756368004D32383020504D
:1044F0003020533130004465706C6F7920424C5449
:104500006F756368004D323830205030205331329F
:104510003000424C546F7563682053656C662D54AF
:10452000657374004D3238302050302053313630AE
:1045300000526573657420424C546F756368004D7A
:1045400061696E005072696E742061626F72746589
:1045500064004E6F2053442063617264005072699E
:104560006E742066726F6D2053440053746F702018
:104570007072696E7400526573756D652070726932
:104580006E74005061757365207072696E740043BB
:104590006F6E74726F6C005072657061726500545A
:1045A000756E6500424C546F75636800496E666FA6
:1045B0002073637265656E00426162797374657021
:1045C00070696E67205A005A2D4F66667365743A9B
:1045D000200046696C2E204469612E203200466915
:1045E0006C2E204469612E20320046696C2E2044D6
:1045F00069612E20310046696C2E204469612E20AD
:1046000031004F6666004F6E20004520696E206DB8
:104610006D3300436F6E74726F6C0043616E6E6F2A
:104620007420656E746572207375626469723A20D5
:1046300000022E2E004D61696E003F4E6F204545F1
:1046400050524F4D2073746F7261676520617661BF
:10465000696C61626C6520666F722061206D6573A4
:1046600068206F6620746869732073697A652E0A02
:104670000A004E414E494E495459494E46CDCCCC84
:104680003D0AD7233C17B7D13877CC2B329595E626
:10469000241FB14F0A000020410000C84200401C06
:1046A0004620BCBE4CCA1B0E5AAEC59D74000E01FE
:1046B000D40011241FBECFEFD1E2DEBFCDBF00E09A
:1046C0000CBF14E0A0E0B2E0EAE4F0E902E00BBFC6
:1046D00002C007900D92AA3BB107D9F729E1AAEBD6
:1046E000B4E001C01D92A437B207E1F713E2C8E5B8
:1046F000D3E200E006C021970109802FFE010F944C
:10470000D73BC735D10780E00807A9F70F944D3193
:104710000D9413480C9400002F923F924F925F9299
:104720006F927F928F929F92AF92BF92CF92DF92C1
:10473000EF92FF920F931F93CF93DF93CDB7DEB726
:10474000CF58D1090FB6F894DEBF0FBECDBF809110
:104750009E0720E6829FC0011124825E994F9093AC
:104760002C1580932B158091C00580FF1BC0E6ECB3
:10477000F7E384918F010F5F1F4F882321F00E9480
:10478000EE45F801F6CF00912B1510912C15D801AC
:104790008D918D01882319F00E94EE45F8CF8AE0B3
:1047A0000E94EE45E0912B15F0912C15808180320E
:1047B00031F43196F0932C15E0932B15F3CF8E3412
:1047C00069F010912B1500912C156AE270E0812F91
:1047D000902F0F94173F009721F52AC0818190ED0B
:1047E000980F9A3010F08D3261F73296F0932C15B5
:1047F000E0932B15E0912B15F0912C1580818053BF
:104800008A3010F43196F2CFE0912B15F0912C15EF
:1048100080818032B1F63196F0932C15E0932B1500
:10482000F3CFFC0131968291803231F08A3221F04F
:10483000A12FB02F9D9102C01082F5CFFD01808184
:1048400011968032D9F380538A3020F0E6ECF7E3FA
:104850000C943F3E20E030E06AE0629FA001639F3D
:10486000500D11249A01205331098191280F311DD7
:1048700087FD3A95808180538A3078F38F01319695
:10488000D8018C918032D1F31093D1040093D004DD
:1048900041E050E050938205409381059D3409F436
:1048A00040C7943511F40C94093E973411F00C94E0
:1048B0002D3E2C31310509F4CEC578F42430310574
:1048C00030F480915E022230310500F129C024309D
:1048D000310509F482C50C94363E2A35310509F4B8
:1048E0005EC650F42D31310509F4B9C52E313105BC
:1048F00009F4B9C50C94363E2B35310509F453C67D
:104900002C35310509F454C60C94363E882311F435
:104910000C94363E0E948FF60E94F4DC0C94363ED6
:10492000882311F40C94363E11E02230310509F051
:1049300010E00E948FF682E50E94E442882309F489
:1049400052C10E9456436B017C014090F41150907B
:10495000F5116090F6117090F7112091F8113091D7
:10496000F9114091FA115091FB112BAF3CAF4DAFB3
:104970005EAF8091A0159091A115A091A215B09164
:10498000A31523968CAF9DAFAEAFBFAF23972091F9
:10499000A4153091A5154091A6155091A7152B96F9
:1049A0002CAF3DAF4EAF5FAF2B9720E030E0A901B9
:1049B000C701B6010F94C243882309F4F4C4A301CC
:1049C000920123966CAD7DAD8EAD9FAD23970F9474
:1049D000C24381110FC02BAD3CAD4DAD5EAD2B96EA
:1049E0006CAD7DAD8EAD9FAD2B970F94C2438823E8
:1049F00009F4D9C420E030E0A901C701B6010F9441
:104A0000C243881F8827881F18130BC080E090E0DE
:104A1000A0E8BFE367968CAF9DAFAEAFBFAF67971F
:104A20000AC020E030E040E85FEB67962CAF3DAF76
:104A30004EAF5FAF6797A301920123966CAD7DAD3A
:104A40008EAD9FAD23970F94DF3B2F966CAF7DAF5C
:104A50008EAF9FAF2F972BAD3CAD4DAD5EAD2B967E
:104A60006CAD7DAD8EAD9FAD2B970F94DF3B639604
:104A70006CAF7DAF8EAF9FAF63972F962CAD3DADE2
:104A80004EAD5FAD2F97CA01B9010F9427444B017A
:104A90005C0163962CAD3DAD4EAD5FAD6397CA0131
:104AA000B9010F9427449B01AC01C501B4010F94D7
:104AB000E03B0F94713E27966CAF7DAF8EAF9FAFFA
:104AC000279720E030E040E05FE30F9427444B015C
:104AD0005C01A7019601C701B6010F9427446B0141
:104AE0007C01A5019401C501B4010F9427449B01E9
:104AF000AC01C701B6010F94DF3B0F94713E9B01DF
:104B0000AC0167966CAD7DAD8EAD9FAD67970F9490
:104B100027444B015C0123962CAD3DAD4EAD5FADFE
:104B20002397C301B2010F94E03B20E030E040E066
:104B30005FE30F9427446B017C0163966CAD7DAD00
:104B40008EAD9FAD6397905827962CAD3DAD4EAD81
:104B50005FAD27970F94CC3C9B01AC01C501B4011C
:104B60000F9427449B01AC01C701B6010F94E03BB1
:104B7000A30192010F94DF3B6B017C012B962CADBE
:104B80003DAD4EAD5FAD2B976BAD7CAD8DAD9EADAC
:104B90000F94E03B20E030E040E05FE30F942744D7
:104BA0002B013C0127962CAD3DAD4EAD5FAD279757
:104BB0002F966CAD7DAD8EAD9FAD2F970F94CC3CF5
:104BC0009B01AC01C501B4010F9427449B01AC01CA
:104BD000C301B2010F94E03B2BAD3CAD4DAD5EADDA
:104BE0000F94DF3B14C089E40E94E442882329F03B
:104BF0000E9456436B017C0103C0C12CD12C76016D
:104C00008AE40E94E4428823F9F00E9456432B96DE
:104C10006CAF7DAF8EAF9FAF2B9720E030E0A90146
:104C2000C701B6010F94C24381111EC020E030E0DD
:104C3000A9012B966CAD7DAD8EAD9FAD2B970F94DA
:104C4000C243811111C0AFC320E030E0A901C70108
:104C5000B6010F94C243882309F4A5C32B961CAE5A
:104C60001DAE1EAE1FAE2B97D701C601B0588BAF3D
:104C70009CAFADAFBEAF2B962CAD3DAD4EAD5FAD95
:104C80002B97505823962CAF3DAF4EAF5FAF239775
:104C90009C01AD01BC01CD010F9427444B015C0187
:104CA00023962CAD3DAD4EAD5FAD2397CA01B90142
:104CB0000F9427449B01AC01C501B4010F94E03B64
:104CC0000F94713EA3966CAF7DAF8EAF9FAFA3974D
:104CD0008091F4119091F511A091F611B091F71116
:104CE00027968CAF9DAFAEAFBFAF2797A7019601B8
:104CF000BC01CD010F94E03B67966CAF7DAF8EAFEA
:104D00009FAF67972091F8113091F9114091FA11F6
:104D10005091FB112F962CAF3DAF4EAF5FAF2F9749
:104D20002B962CAD3DAD4EAD5FAD2B972F966CAD58
:104D30007DAD8EAD9FAD2F970F94E03BAB966CAFE2
:104D40007DAF8EAF9FAFAB978091A0159091A115CD
:104D5000A091A215B091A3156B968CAF9DAFAEAF8D
:104D6000BFAF6B9767962CAD3DAD4EAD5FAD67970E
:104D7000BC01CD010F94DF3B6B017C012091A41598
:104D80003091A5154091A6155091A7156F962CAF9F
:104D90003DAF4EAF5FAF6F97AB962CAD3DAD4EAD17
:104DA0005FADAB976F966CAD7DAD8EAD9FAD6F97E0
:104DB0000F94DF3B4B015C018091FC119091FD1140
:104DC000A091FE11B091FF11AF968CAF9DAFAEAF29
:104DD000BFAFAF979C01AD016091A8157091A91567
:104DE0008091AA159091AB150F94DF3B63966CAF41
:104DF0007DAF8EAF9FAF63972091AC153091AD150D
:104E00004091AE155091AF15A7962CAF3DAF4EAF68
:104E10005FAFA7978091001290910112A0910212AA
:104E2000B0910312E3968CAF9DAFAEAFBFAFE397E7
:104E3000A70196016BAD7CAD8DAD9EAD0F9427445F
:104E40002B013C01A501940123966CAD7DAD8EAD87
:104E50009FAD23970F9427449B01AC01C301B2017E
:104E60000F94E03B2B013C01A50194016BAD7CAD9F
:104E70008DAD9EAD0F9427444B015C01A7019601B7
:104E800023966CAD7DAD8EAD9FAD23970F942744D7
:104E90009B01AC01C501B4010F94DF3BA30192015A
:104EA0000F945E3C6B017C0120E030E0A9010F947F
:104EB000C24387FF0AC02BED3FE049EC50E4C70135
:104EC000B6010F94E03B6B017C01112351F02BEDF7
:104ED0003FE049EC50E4C701B6010F94DF3B6B01A2
:104EE0007C0120E030E0A901C701B6010F94C24364
:104EF00081112AC06B962CAD3DAD4EAD5FAD6B9769
:104F000027966CAD7DAD8EAD9FAD27970F94C243B4
:104F100081111AC06F962CAD3DAD4EAD5FAD6F9750
:104F20002F966CAD7DAD8EAD9FAD2F970F94C24384
:104F300081110AC02BED3FE049EC50E4C701B601F6
:104F40000F94E03B6B017C01A3962CAD3DAD4EADC3
:104F50005FADA397C701B6010F9427449B01AC0135
:104F60000F9427444B015C0163962CAD3DAD4EADD3
:104F70005FAD6397CA01B9010F9427449B01AC014F
:104F8000C501B4010F94E03B0F94713E4B015C01ED
:104F90002FE632E143E85AE30F94C24387FDFFC195
:104FA000C501B4010F94723D0F94433D2D967FAF20
:104FB0006EAF2D97DB01AB2B31F4E1E0F0E02D96E5
:104FC000FFAFEEAF2D972D962EAD3FAD2D97B901CA
:104FD00080E090E00F94C6434B015C019B01AC0163
:104FE000C701B6010F94CC3C27966CAF7DAF8EAF56
:104FF0009FAF2797A501940163966CAD7DAD8EADF3
:105000009FAD63970F94CC3CA3966CAF7DAF8EAFF2
:105010009FAFA397E3962CAD3DAD4EAD5FADE3974B
:10502000A7966CAD7DAD8EAD9FADA7970F94DF3B7E
:10503000A50194010F94CC3CA7966CAF7DAF8EAFC9
:105040009FAFA79727962CAD3DAD4EAD5FAD27978F
:10505000CA01B9010F94274420E030E040E05FE34B
:105060000F9427449B01AC0160E070E080E89FE36F
:105070000F94DF3B63966CAF7DAF8EAF9FAF6397AE
:10508000AF968CAD9DADAEADBFADAF9789879A871A
:10509000AB87BC87E3962CAD3DAD4EAD5FADE397DE
:1050A0002D873E874F87588B6091DB027091DC0221
:1050B000072E000C880B990B0F94C8432091C00257
:1050C0003091C1024091C2025091C3020F94274413
:1050D0002AE037ED43E25CE30F9427446B966CAF14
:1050E0007DAF8EAF9FAF6B970F940C209B01AC01EF
:1050F00028533F4F4F4F5F4F6F962CAF3DAF4EAF92
:105100005FAF6F974BAC5CAC6DAC7EAC222423944C
:10511000312CD12C2D968EAD9FAD2D9728163906AA
:1051200009F429C10E9451D00F940C20DC01CB015D
:105130006F962CAD3DAD4EAD5FAD6F97821B930B5F
:10514000A40BB50BB7FD10C00F940C209B01AC0154
:1051500028533F4F4F4F5F4F6F962CAF3DAF4EAF31
:105160005FAF6F970F940403D39438E13D150CF4AF
:105170004BC063962CAD3DAD4EAD5FAD63972396AE
:105180006CAD7DAD8EAD9FAD23970F9427444B0141
:105190005C0127962CAD3DAD4EAD5FAD2797B201BA
:1051A000C3010F942744A50194010F94E03B7B01B8
:1051B0008C0163962CAD3DAD4EAD5FAD6397B201F2
:1051C000C3010F9427444B015C0127962CAD3DADE4
:1051D0004EAD5FAD279723966CAD7DAD8EAD9FAD87
:1051E00023970F9427449B01AC01C501B4010F9490
:1051F000DF3B2B013C01C701D80123968CAF9DAF4B
:10520000AEAFBFAF239756C0B10180E090E00F94DE
:10521000C64327962CAD3DAD4EAD5FAD27970F949D
:1052200027444B015C010F94C93C6B017C01C50113
:10523000B4010F94663E4B015C01A70196016BAD72
:105240007CAD8DAD9EAD0F9427442B013C01A50193
:1052500094012B966CAD7DAD8EAD9FAD2B970F94C9
:1052600027449B01AC01C301B2010F94E03B2B0129
:105270003C01A50194016BAD7CAD8DAD9EAD0F944D
:1052800027444B015C01A70196012B966CAD7DADC7
:105290008EAD9FAD2B970F9427449B01AC01C501A8
:1052A000B4010F94DF3B23966CAF7DAF8EAF9FAF01
:1052B0002397D12C9201A30167966CAD7DAD8EAD85
:1052C0009FAD67970F94E03B69837A838B839C83C0
:1052D00023962CAD3DAD4EAD5FAD2397AB966CAD37
:1052E0007DAD8EAD9FADAB970F94E03B6D837E831C
:1052F0008F839887A3962CAD3DAD4EAD5FADA39740
:1053000069857A858B859C850F94E03B69877A87D0
:105310008B879C87A7962CAD3DAD4EAD5FADA79713
:105320006D857E858F8598890F94E03B6D877E879C
:105330008F87988B80913F02882321F0CE010196C0
:105340000F94A701C090B0056B96ECACFDAC0EAD10
:105350001FAD6B979E01235F3F4FAE01475F5F4FCD
:10536000BE016B5F7F4FCE0101960E9402774FEF27
:10537000241A340ACFCEC090B0056B96ECACFDACCD
:105380000EAD1FAD6B972CEA35E148EA55E164EAB2
:1053900075E180EA95E10E9402770E94C1420E9475
:1053A000AB450C94363EEBE7F9E384918F010F5F38
:1053B0001F4F882321F00E94EE45F801F6CFE6EB5F
:1053C000F2E084918F010F5F1F4F882311F40C943A
:1053D000363E0E94EE45F801F4CF80E50E94E4429B
:1053E000882329F00E944B436B017C0103C0C12C30
:1053F000D12C760183E50E94E442882321F00E94AB
:105400007F436B017C010E9400A40E94AB45809108
:105410002D1590912E15A0912F15B0913015C80E15
:10542000D91EEA1EFB1E80916F02811105C060E04B
:105430008CEC92E00E94AE550F940C20DC01CB0165
:105440008C199D09AE09BF09B7FD02C00C94363E08
:105450000F940403F1CF0E94E9F40C94363E0E94AD
:10546000CB930C94363E88E50E94E442882319F0E1
:105470000E9456430EC020E030E040EE50E46091C0
:10548000F4117091F5118091F6119091F7110F942C
:10549000DF3B2B013C0189E50E94E442882319F09F
:1054A0000E9456430EC020E030E048EE51E4609187
:1054B000F8117091F9118091FA119091FB110F94EC
:1054C000E03B4B015C0149825A826B827C826D8396
:1054D0007E838F83988720E030E0A90160910C12D1
:1054E00070910D1280910E1290910F120F94E03B6B
:1054F00069877A878B879C87CE0101960E9487F007
:10550000082F882311F40C94363E109202020E9458
:10551000CF4583E50E94E442882319F00E94AE4300
:10552000082FEE24E394F12CA5019401C301B201EC
:105530000E94644B6B017C012CEA35EC47E257E397
:10554000C301B2010F94E03BAB01BC018FED92E0CF
:105550000E94EE742CEA35EC47E257E3C501B40132
:105560000F94E03BAB01BC018AED92E00E94EE7427
:105570002CEA35EC47E257E3C701B6010F94E03B54
:10558000AB01BC0185ED92E00E94EE748AE00E94BE
:10559000EE450E94B6450E94A1C30C94363E10927F
:1055A000CF040C94363E81E08093CF040C94373EB8
:1055B00085E40E94E442B82E811102C00E9400A43A
:1055C00084E6882E83E0982E94EFC92E91E1D92E9F
:1055D0002AEBE22E24E0F22E00E010E0A12CD40110
:1055E0008D914D010E94E442882309F44EC0F601DA
:1055F0002081318142815381C457DF4F2883CC58A9
:10560000D040C357DF4F3883CD58D040C257DF4F0B
:105610004883CE58D040C157DF4F5883CF58D04031
:105620000E945643D6016D937D938D939C9313975F
:10563000C457DF4F2881CC58D040C357DF4F388143
:10564000CD58D040C257DF4F4881CE58D040C157C7
:10565000DF4F5881CF58D04003301105B1F00F947F
:10566000DF3B9B01AC01F7016081718182819381F5
:105670000F94E03BD7016D937D938D939C9313978B
:10568000C8010E944544AA24A3940F5F1F4FB4E0B1
:10569000CB0ED11CE4E0EE0EF11C0430110509F034
:1056A0009ECFAA2019F00E94354437C0BB20A9F133
:1056B000C0900012D0900112E0900212F0900312FC
:1056C0002091531530915415409155155091561510
:1056D000C701B6010F9427440F94333E60930E0E1A
:1056E00070930F0E8093100E9093110EC701B601A8
:1056F0000F943D3D2FB7F8946093EE0C7093EF0C30
:105700008093F00C9093F10C2FBF1092FE0D10922D
:10571000FF0D1092000E1092010E0E94A1C30C9476
:10572000363E2537310509F41AC708F0CBC02B34B3
:10573000310509F46FC508F062C02731310509F45D
:10574000B4C298F52131310509F44BC2A0F42330DD
:10575000310509F4C2C630F42230310508F4C1C164
:105760000C94363E2530310511F00C94363E0E94E3
:1057700048F10C94363E2431310509F44DC230F421
:105780002231310509F4CDC60C94363E2531310560
:1057900009F487C22631310511F00C94363E10927F
:1057A000BA0E1092BB0E0C94363E2C31310509F422
:1057B000D4C280F42931310509F489C208F47CC2CD
:1057C0002A31310509F489C22B31310509F489C226
:1057D0000C94363E2F31310509F42EC430F42E31AD
:1057E000310509F4C1C20C94363E2032310509F46A
:1057F000D3C32A32310509F4C5C40C94363E293688
:10580000310509F45AC640F52335310509F484C63B
:1058100098F42D34310509F405C508F4FFC4213589
:10582000310509F45EC62235310511F00C94363E7F
:105830001092CE040C94363E2535310509F475C618
:1058400008F46FC62C35310509F473C628363105C6
:1058500009F4ECC40C94363E2E36310509F454C5D7
:1058600098F42B36310509F434C608F42EC62C36CC
:10587000310509F4F2C52D36310511F00C94363E90
:105880000E94C2F20C94363E2137310509F4E9C575
:1058900068F42F36310509F44AC52037310511F077
:1058A0000C94363E83E294E00F948B02223731054C
:1058B00009F443C62337310511F00C94363EE1E478
:1058C000F4E041C62C32F1E03F0711F40C94593555
:1058D00008F080C02C3C310509F416C708F040C020
:1058E0002139310509F4D0C6D0F42837310509F43F
:1058F000BEC640F42737310511F00C94363EE1E284
:10590000F5E033C62937310509F4B8C62C3831051E
:1059100011F00C94363E0E94DBC50C94363E283CB8
:10592000310509F4B5C648F42E3B310511F00C944D
:10593000363E0E94ECC50C94363E293C310509F4F4
:10594000ABC62B3C310511F00C94363E67E7E62ED2
:1059500065E1F62E04E613E074E0D72ED00EC5C63E
:105960002C3D310511F40C944D3588F42E3C310555
:1059700009F4A3C708F434C7233D310509F4E5C78A
:105980002A3D310511F40C943E350C94363E213EEF
:10599000310509F420C180F42D3D310511F40C943A
:1059A0005135203E310511F00C94363E60E088E020
:1059B0000E94DE8F0C94363E223E310511F40C9489
:1059C00055352831314011F00C94363E0E94E1C12A
:1059D0000C94363E243A81E0380711F40C94603A76
:1059E000E0F52336A1E03A0711F40C94E33DB0F45E
:1059F0002E32E1E03E0711F40C94793610F40C9449
:105A00005D352F3241E0340711F40C94F036203329
:105A1000314011F40C94FC350C94363E213981E070
:105A2000380711F40C94583A48F42039314011F0F9
:105A30000C94363E0E9400A40C94363E2239B1E00C
:105A40003B0711F40C945C3A2A39314011F00C9464
:105A5000363E0E9478C10C94363E263FF1E03F0767
:105A600011F40C94BD3CE8F42C3A51E0350711F4E4
:105A70000C94B53B38F4253A314011F40C94433B77
:105A80000C94363E243FA1E03A0711F40C94BA3C42
:105A9000253F314011F00C94363E0E9488860C94CC
:105AA000363E2335E3E03E0711F40C94CA3C68F41B
:105AB000273F41E0340711F40C94C03C2D353240AF
:105AC00011F40C942F3D0C94363E203A83E03807B5
:105AD00009F4A8C2273E334011F40C94FB3D0C940A
